:1000000012C019C018C017C016C015C014C013C044
:1000100012C011C010C00FC00EC00DC00CC00BC06C
:100020000AC009C008C011241FBECFE5D4E0DEBF5E
:10003000CDBF28D518C7E4CF6623B9F0FC016150C5
:1000400070E06F5F7F4F680F791F80E04CE821916F
:1000500098E0382F3227869530FD842726959150D9
:10006000C1F7E617F70799F7089580E008957F92A2
:100070008F929F92AF92BF92CF92DF92EF92FF92B8
:100080000F931F93CF93DF937C016B015A01722E64
:10009000E8012097E9F005E51DD24E0188E0880EC1
:1000A000911C0991272DA501B601C70113D2C815CE
:1000B000D905B9F7DF91CF911F910F91FF90EF9084
:1000C000DF90CF90BF90AF909F908F907F900895DA
:1000D0000CEC00D2EFCFBF92CF92DF92EF92FF9263
:1000E0000F931F93CF93DF93EC017B016A01B22E34
:1000F00094D1813061F02B2DA601B701CE01B7DF7D
:1001000004E42B2DA601B701CE01E4D180E0DF91FC
:10011000CF911F910F91FF90EF90DF90CF90BF9004
:1001200008954F925F927F928F929F92AF92BF926B
:10013000CF92DF92EF92FF920F931F93CF93DF93B3
:100140006C015B014A01722E68D1813059F1272D73
:10015000A401B501C6018BDF0EEB272DA401B5016B
:10016000C601B8D127018701075F1F4FE701272D7F
:10017000A401B501C60105D28993C017D107B9F70B
:10018000F70190818181892B9281892B9381892B21
:100190009481892B9581892B9681892B9781892B35
:1001A00089F483E0DF91CF911F910F91FF90EF9041
:1001B000DF90CF90BF90AF909F908F907F905F9097
:1001C0004F900895B701685F7F4F90E04CE8F201CF
:1001D00021912F0188E0392F3227969530FD942701
:1001E00026958150C1F74616570689F7F7012085F5
:1001F0002917C1F282E0D6CF6F927F928F929F92A1
:10020000AF92CF92EF92FF920F931F93CF93DF9312
:10021000EC014B013A01F22E00D18130F1F02F2D8B
:10022000A301B401CE0123DF0EE42F2DA301B401FD
:10023000CE0150D10E2D2F2DA301B401CE014AD1F4
:100240000C2D2F2DA301B401CE0144D10A2D2F2D49
:10025000A301B401CE013ED180E0DF91CF911F9187
:100260000F91FF90EF90CF90AF909F908F907F90E5
:100270006F900895AF92BF92CF92DF92FF920F934B
:100280001F93CF93DF936C01EB015A01F22EC5D07F
:10029000813099F02F2DA501BE01C601E8DE08E4EA
:1002A0002F2DA501BE01C60115D1F60180818F2930
:1002B00080838881F82AF88280E0DF91CF911F91B6
:1002C0000F91FF90DF90CF90BF90AF900895CF92A5
:1002D000DF92EF92FF920F931F93CF93DF93CDB7EF
:1002E000DEB729970FB6F894DEBF0FBECDBF67010A
:1002F000FE0131967F0115DF81111AC08A8190E0DD
:10030000982F88272981820F911DF6019183808380
:1003100080E029960FB6F894DEBF0FBECDBFDF9107
:10032000CF911F910F91FF90EF90DF90CF900895A4
:10033000F60111821082EDCF5F926F927F928F92C1
:100340009F92AF92BF92CF92DF92EF92FF920F9364
:100350001F93CF93DF930115110509F440C0E80105
:10036000522E5A016B017C0158D0813041F103E3D8
:10037000252DA501B601C701ADD03E014E0188E093
:10038000880E911C8E01252DA501B601C701F9D05B
:10039000F80181938F01E815F905A9F75F8198812C
:1003A0008981892B9A81892B9B81892B9C81892B1F
:1003B0009D81892B9E81892B852B99F483E0DF9188
:1003C000CF911F910F91FF90EF90DF90CF90BF9052
:1003D000AF909F908F907F906F905F90089584E092
:1003E000EECFBE01695F7F4F90E04CE8299188E035
:1003F000392F3227969530FD942726958150C1F7E5
:10040000C617D70799F75917D1F2F30111923F0197
:100410008E169F06D1F782E0D2CFCF93DF93DC0117
:10042000FB013FB78C91822B8C938081822B808340
:100430009C91822F809598239C9398EC9A95F1F744
:10044000908189238083C7E1CA95F1F70000EA0112
:100450008881D2E4DA95F1F700C09C91922B9C93AD
:100460009081922B908398EC9A95F1F73FBF2823C7
:1004700081E009F480E0DF91CF9108950F93FC01B2
:100480009FB78081822B8083DB018C91822B8C93A0
:100490008081322F309583238083002391F0B2E056
:1004A000BA95F1F700C08081282B20838AE18A95D4
:1004B000F1F700C09FBF81E0011101C080E00F9102
:1004C0000895AAE1AA95F1F700C08081282B208326
:1004D00000C0F0CF0F93FC01DB017FB7622F609566
:1004E00048E050E091E010C082E08A95F1F700C04A
:1004F0008081822B80838AE18A95F1F700C03FBF1B
:10050000990F41505109D1F03FB78081822B8083F0
:100510008C91822B8C93808186238083802F8923EA
:1005200019F78AE18A95F1F700C08081822B8083D8
:1005300000C03FBF990F4150510931F77FBF0F9164
:100540000895DC01FB013FB78C91822B8C93808155
:10055000822B80838C91922F909589238C9300C05D
:1005600080819823908300C000C00000FA01808140
:10057000F4E1FA95F1F73FBF282381E009F480E028
:100580000895EF92FF920F931F93CF93DF93DC01B7
:10059000FB01EA010FB7122F109568E070E031E01F
:1005A00080E04FB79C91922B9C939081922B9083EB
:1005B0009C9191239C9300C090819123908300C0D3
:1005C00000C00000988154E15A95F1F74FBF922383
:1005D00041E050E011F440E050E0349F7001359F5D
:1005E000F00C11248E29330F61507109D1F60FBF21
:1005F000DF91CF911F910F91FF90EF9008952F926F
:100600003F924F925F926F927F928F929F92AF92A2
:10061000BF92CF92DF92EF92FF920F931F93CF93EF
:10062000DF93CDB7DEB7A4970FB6F894DEBF0FBE49
:10063000CDBF3FB73B8F0115110509F448C1DAA2C0
:10064000C9A2F8A2EF8E1D8F0C8F422E5C834B83C4
:100650007A8369831C011A8A1B8A1C8A1D8A1E8A56
:100660001F8A188E198E1E8E242D4B815C81698104
:100670007A81C101D2DE813009F475C100EF242DE9
:100680004B815C8169817A81C10124DF1A861B86D6
:100690001C861D861E861F86188A198A88248394C4
:1006A000912C1BA21D821E821F821886898620E043
:1006B0002CA3242D4B815C8169817A81C10141DFAA
:1006C000182F242D4B815C8169817A81C10139DF2A
:1006D000880F182B13300CF0BEC011300CF05FC027
:1006E00011115EC02985392D4CA15BA16D817E81E0
:1006F0008F81988501E004D23901842EB52FF62F21
:10070000E72F8A8F592EAA88BB88CC88DD88EE888F
:10071000FF88088D198D0DD209F008F4BEC011E0D4
:1007200029853A8923233B8939214C895CA14523BA
:100730005D898BA158236D819E8969237E81AF8954
:100740007A238F81988D89239885A98D9A23A0E09B
:10075000F9D109F4BEC02A89398523272A8B4B8910
:1007600049254B8B5C898CA158275C8B9D89ABA15B
:100770009A279D8B2E893D8123272E8B4F895E8161
:1007800045274F8B888D9F818927888FA98D288544
:10079000A227A98FFB2EEF2EDE2ECA8C12C011705D
:1007A0002985392D4CA15BA16D817E818F81988532
:1007B00001E0A6D13901842EF52EE62ED72EC82EC3
:1007C000592E012F242D4B815C8169817A81C101D1
:1007D00055DE111136C040E0912C1A8E198630E09A
:1007E00020E090E080E0AA85A42BAA87EB85E92988
:1007F000EB87FC854A8DF42BFC875D85A9855A2BF8
:100800005D87EE85E32BEE87FF85F22BFF87288936
:10081000292B288B3989382B398B9301482D5F2D53
:100820006E2D7D2D8C2D952DA0E08CD109F453C01B
:100830006986972C8CA2FBA2ED82DE82CF8258863D
:1008400038CF49853CA13A8F5BA159873D812E81E4
:100850009F818885C8CF133009F0A2CFEC8DFD8D24
:100860001082FB8DFFBF81E0A4960FB6F894DEBF27
:100870000FBECDBFDF91CF911F910F91FF90EF90F1
:10088000DF90CF90BF90AF909F908F907F906F90B0
:100890005F904F903F902F90089511E029852A2175
:1008A0003B2D39214C2D5CA145235D2D8BA1582377
:1008B0006D816E217E817F218F8180239885A98D16
:1008C0009A23A0E03FD109F465CF10E063CF84E024
:1008D000CBCF10E040CF4F8D58A1452B51F15E8D0D
:1008E000E52FF0E0CF010196880F991F880F991F1F
:1008F000880F991F29A13AA128173907D0F0EE0FC8
:10090000FF1FEE0FFF1FEE0FFF1F4F8D58A1E40FCB
:10091000F51F5A8550838B8581839C859283AD8595
:10092000A3832E8524833F8535834889468359894F
:1009300057838E8D8F5F8E8F882309F48FCF2A89FE
:100940003B894C895D896E897F89888D998DA0E06E
:10095000F9D009F089CE2E8DEC8DFD8D20833B8D55
:100960003FBF80E081CFEC8DFD8D1082FB8DFFBFFE
:100970007BCF84B195B10895CF92DF92EF92FF9231
:10098000CF93DF936A017B01E901BC0180E090E035
:1009900079D1A701960104D26B017C01BE0180E0F0
:1009A00090E070D19B01AC01C701B601D7D0DF91B7
:1009B000CF91FF90EF90DF90CF900895369A0895F1
:1009C0008F929F92AF92BF92CF92DF92EF92FF925F
:1009D0000F931F934B015C0168017901642F70E054
:1009E00080E090E051D1A5019401DAD1A7019601F0
:1009F000B5D01CD1CB011F910F91FF90EF90DF90EC
:100A0000CF90BF90AF909F908F90089583E081BB6F
:100A100014BA81E087BB3E9A86B1836886B908958F
:100A2000EF92FF920F931F93CF93DF9300D0CDB738
:100A3000DEB700E010E020E446E350E067E370E05A
:100A400088E390E048DB2FE38DE093E02150804085
:100A50009040E1F700C00000CE0101967C0120E447
:100A600046E350E067E370E088E390E030DC8981A2
:100A70009A810F900F90DF91CF911F910F91FF906E
:100A8000EF90089583E081BB14BA81E087BB3E9A62
:100A900086B1836886B9C4DFEC01D295C295CF7068
:100AA000CD27DF70CD27369A3699FECF64B175B168
:100AB00080E090E0E7D020E030E040E750E470D103
:100AC00020E030E040E85AE36BD120E030E04AEF2C
:100AD00052E466D120E030E040E750E43FD0A6D0B9
:100AE0006C177D0720F4C09A909A9198D4CF6F50DC
:100AF0007109C617D70778F6C0989098919ACBCF0E
:100B00000F93083090F0982F872F762F652F542F52
:100B1000432F322F22270850F4CF220F331F441FB8
:100B2000551F661F771F881F991F0A95B2F70F91EF
:100B300008952A153B054C055D056E057F05800768
:100B4000910708950024A7FD00942A173005400559
:100B50005005600570058005900508950CD0E6C02D
:100B6000DED040F0D5D030F021F45F3F19F0C7C09F
:100B7000511110C1CAC0EBD098F39923C9F3552382
:100B8000B1F3951B550BBB27AA2762177307840780
:100B900038F09F5F5F4F220F331F441FAA1FA9F336
:100BA00033D00E2E3AF0E0E830D091505040E69528
:100BB000001CCAF729D0FE2F27D0660F771F881F89
:100BC000BB1F261737074807AB07B0E809F0BB0B78
:100BD000802DBF01FF2793585F4F2AF09E3F51059C
:100BE00068F08DC0D7C05F3FECF3983EDCF386958C
:100BF00077956795B795F7959F5FC9F7880F911D12
:100C00009695879597F90895E1E0660F771F881FFD
:100C1000BB1F621773078407BA0720F0621B730BB0
:100C2000840BBA0BEE1F88F7E095089598D088F0F2
:100C30009F5790F0B92F9927B751A0F0D1F0660FC8
:100C4000771F881F991F1AF0BA95C9F712C0B130E3
:100C500081F09FD0B1E008959CC0672F782F88273E
:100C6000B85F39F0B93FCCF3869577956795B39522
:100C7000D9F73EF490958095709561957F4F8F4F91
:100C80009F4F0895E89409C097FB3EF49095809596
:100C9000709561957F4F8F4F9F4F9923A9F0F92F42
:100CA00096E9BB279395F695879577956795B795C0
:100CB000F111F8CFFAF4BB0F11F460FF1BC06F5FA6
:100CC0007F4F8F4F9F4F16C0882311F096E911C0B8
:100CD000772321F09EE8872F762F05C0662371F0D9
:100CE00096E8862F70E060E02AF09A95660F771FED
:100CF000881FDAF7880F9695879597F9089597F9E1
:100D00009F6780E870E060E008959FEF80EC0895B1
:100D100000240A94161617061806090608950024DA
:100D20000A9412161306140605060895092E039454
:100D3000000C11F4882352F0BB0F40F4BF2B11F4C8
:100D400060FF04C06F5F7F4F8F4F9F4F089557FD27
:100D50009058440F551F59F05F3F71F04795880F29
:100D600097FB991F61F09F3F79F0879508951216C0
:100D700013061406551FF2CF4695F1DF08C016166C
:100D800017061806991FF1CF86957105610508941D
:100D90000895E894BB2766277727CB0197F9089534
:100DA0000BD0C4CFB5DF28F0BADF18F0952309F0D7
:100DB000A6CFABCF1124EECFCADFA0F3959FD1F31E
:100DC000950F50E0551F629FF001729FBB27F00DF9
:100DD000B11D639FAA27F00DB11DAA1F649F66274E
:100DE000B00DA11D661F829F2227B00DA11D621F9D
:100DF000739FB00DA11D621F839FA00D611D221F57
:100E0000749F3327A00D611D231F849F600D211D3A
:100E1000822F762F6A2F11249F5750408AF0E1F0DD
:100E200088234AF0EE0FFF1FBB1F661F771F881F26
:100E300091505040A9F79E3F510570F060CFAACF66
:100E40005F3FECF3983EDCF3869577956795B79511
:100E5000F795E7959F5FC1F7FE2B880F911D96953B
:0A0E6000879597F90895F894FFCFE5
:00000001FF
